{"abi":[{"type":"constructor","inputs":[],"stateMutability":"payable"},{"type":"function","name":"TARGET","inputs":[],"outputs":[{"name":"","type":"address","internalType":"contract SchniCoin"}],"stateMutability":"view"},{"type":"function","name":"isSolved","inputs":[],"outputs":[{"name":"","type":"bool","internalType":"bool"}],"stateMutability":"view"}],"bytecode":{"object":"0x60a06040523468056bc75e2d631000001461001957600080fd5b60405161002590610053565b604051809103906000f080158015610041573d6000803e3d6000fd5b506001600160a01b0316608052610060565b610b678061022883390190565b6080516101a861008060003960008181605d0152609d01526101a86000f3fe608060405234801561001057600080fd5b50600436106100365760003560e01c806364d98f6e1461003b578063cc1f2afa14610058575b600080fd5b610043610097565b60405190151581526020015b60405180910390f35b61007f7f000000000000000000000000000000000000000000000000000000000000000081565b6040516001600160a01b03909116815260200161004f565b600060047f00000000000000000000000000000000000000000000000000000000000000006001600160a01b031663fdee3e036040518163ffffffff1660e01b8152600401602060405180830381865afa1580156100f9573d6000803e3d6000fd5b505050506040513d601f19601f8201168201806040525081019061011d919061014a565b600481111561012e5761012e610134565b14905090565b634e487b7160e01b600052602160045260246000fd5b60006020828403121561015c57600080fd5b81516005811061016b57600080fd5b939250505056fea2646970667358221220b85eb72bee560e884e0c9edef8fdab5b18fdf3548a12c29b65953c11c59f861f64736f6c63430008170033608060405234801561001057600080fd5b50600080546001600160a01b03191633179055610b35806100326000396000f3fe6080604052600436106100c25760003560e01c8063c7fcd5591161007f578063f0ef10da11610059578063f0ef10da1461022f578063f32697161461024f578063f8b2cb4f14610265578063fdee3e031461029b57600080fd5b8063c7fcd559146101d0578063d49fc751146101f7578063d72c55771461022757600080fd5b806327e235e3146100c757806346998f4014610107578063469c81101461011e57806357a11d441461013e57806386e66f211461016b5780638da5cb5b14610198575b600080fd5b3480156100d357600080fd5b506100f46100e23660046107d0565b60046020526000908152604090205481565b6040519081526020015b60405180910390f35b34801561011357600080fd5b5061011c6102b3565b005b34801561012a57600080fd5b5061011c610139366004610808565b61042e565b34801561014a57600080fd5b506100f46101593660046107d0565b60036020526000908152604090205481565b34801561017757600080fd5b5061018b6101863660046107d0565b61044b565b6040516100fe91906108b9565b3480156101a457600080fd5b506000546101b8906001600160a01b031681565b6040516001600160a01b0390911681526020016100fe565b3480156101dc57600080fd5b506002546101ea9060ff1681565b6040516100fe919061091e565b34801561020357600080fd5b506101ea6102123660046107d0565b60056020526000908152604090205460ff1681565b61011c6104e5565b34801561023b57600080fd5b5061011c61024a366004610946565b610684565b34801561025b57600080fd5b506100f460015481565b34801561027157600080fd5b506100f46102803660046107d0565b6001600160a01b031660009081526004602052604090205490565b3480156102a757600080fd5b5060025460ff166101ea565b33600090815260046020526040902054600a111561031b57336000908152600560205260409020805460ff1916600117905560025460ff1660048111156102fc576102fc610908565b6001111561031957600280546001919060ff191682805b02179055505b565b336000908152600460205260409020546014111561037f57336000908152600560205260409020805460ff191660029081179091555460ff16600481111561036557610365610908565b600211156103195760028054819060ff1916600182610313565b33600090815260046020526040902054601e11156103e457336000908152600560205260409020805460ff1916600317905560025460ff1660048111156103c8576103c8610908565b6003111561031957600280546003919060ff1916600183610313565b336000908152600560205260409020805460ff1916600490811790915560025460ff169081111561041757610417610908565b60041115610319576002805460ff19166004179055565b33600090815260066020526040902061044782826109fd565b5050565b6006602052600090815260409020805461046490610972565b80601f016020809104026020016040519081016040528092919081815260200182805461049090610972565b80156104dd5780601f106104b2576101008083540402835291602001916104dd565b820191906000526020600020905b8154815290600101906020018083116104c057829003601f168201915b505050505081565b34670de0b6b3a7640000146105415760405162461bcd60e51b815260206004820152601b60248201527f596f75206e65656420746f2073656e6420736f6d65206574686572000000000060448201526064015b60405180910390fd5b3360009081526003602052604090205462093a80906105609042610ad3565b1180610579575033600090815260036020526040902054155b6105d15760405162461bcd60e51b815260206004820152602360248201527f596f752063616e206f6e6c7920636865636b20696e206f6e636520706572207760448201526265656b60e81b6064820152608401610538565b6105dc60013361075b565b6040516000903390670de0b6b3a7640000908381818185875af1925050503d8060008114610626576040519150601f19603f3d011682016040523d82523d6000602084013e61062b565b606091505b505090508061066f5760405162461bcd60e51b815260206004820152601060248201526f2a3930b739b332b9103330b4b632b21760811b6044820152606401610538565b50336000908152600360205260409020429055565b6000546001600160a01b031633146106de5760405162461bcd60e51b815260206004820152601760248201527f596f7520617265206e6f742074686520746561636865720000000000000000006044820152606401610538565b6001600160a01b0381166000908152600460205260409020548211156107515760405162461bcd60e51b815260206004820152602260248201527f486520646f6573206e6f74206861766520656e6f756768205363686e69436f696044820152616e7360f01b6064820152608401610538565b610447828261078c565b6001600160a01b03811660009081526004602052604081208054849290610783908490610aec565b90915550505050565b6001600160a01b03811660009081526004602052604081208054849290610783908490610ad3565b80356001600160a01b03811681146107cb57600080fd5b919050565b6000602082840312156107e257600080fd5b6107eb826107b4565b9392505050565b634e487b7160e01b600052604160045260246000fd5b60006020828403121561081a57600080fd5b813567ffffffffffffffff8082111561083257600080fd5b818401915084601f83011261084657600080fd5b813581811115610858576108586107f2565b604051601f8201601f19908116603f01168101908382118183101715610880576108806107f2565b8160405282815287602084870101111561089957600080fd5b826020860160208301376000928101602001929092525095945050505050565b60006020808352835180602085015260005b818110156108e7578581018301518582016040015282016108cb565b506000604082860101526040601f19601f8301168501019250505092915050565b634e487b7160e01b600052602160045260246000fd5b602081016005831061094057634e487b7160e01b600052602160045260246000fd5b91905290565b6000806040838503121561095957600080fd5b82359150610969602084016107b4565b90509250929050565b600181811c9082168061098657607f821691505b6020821081036109a657634e487b7160e01b600052602260045260246000fd5b50919050565b601f8211156109f8576000816000526020600020601f850160051c810160208610156109d55750805b601f850160051c820191505b818110156109f4578281556001016109e1565b5050505b505050565b815167ffffffffffffffff811115610a1757610a176107f2565b610a2b81610a258454610972565b846109ac565b602080601f831160018114610a605760008415610a485750858301515b600019600386901b1c1916600185901b1785556109f4565b600085815260208120601f198616915b82811015610a8f57888601518255948401946001909101908401610a70565b5085821015610aad5787850151600019600388901b60f8161c191681555b5050505050600190811b01905550565b634e487b7160e01b600052601160045260246000fd5b81810381811115610ae657610ae6610abd565b92915050565b80820180821115610ae657610ae6610abd56fea2646970667358221220227822e060dd8a12e776530c1a7106c13cc5976fbab45b1f7a0966beb1970d6164736f6c63430008170033","linkReferences":{}},"methodIdentifiers":{"TARGET()":"cc1f2afa","isSolved()":"64d98f6e"},"id":20}